:100000000C942A000C9447000C9447000C94470071
:100010000C9447000C9447000C9447000C942D1648
:100020000C9447000C9460160C9447000C94470005
:100030000C9447000C9447000C9447000C94470024
:100040000C9447000C9447000C9447000C94470014
:100050000C94470011241FBECFE5D8E0DEBFCDBF12
:1000600011E0A0E6B0E0EEE6F2E302C005900D92EA
:10007000A837B107D9F711E0A8E7B1E001C01D9298
:10008000AF37B107E1F70E940A0B0C9435190C94B5
:100090000000EF92FF920F931F937B018C0120E0F1
:1000A00030E040E05FE40E94490388238CF0C801FF
:1000B000B70120E030E040E05FE40E94C1010E940F
:1000C000A9039B01AC01205030404040504806C07D
:1000D000C801B7010E94A9039B01AC01B901CA0183
:1000E0001F910F91FF90EF900895A0E0B0E0EBE733
:1000F000F0E00C94B918DC012B01FA019C919230CC
:1001000008F439C1EB018881823008F433C194309E
:1001100069F4843009F02FC111969C91119789815F
:10012000981709F428C1ADE5B1E025C1843009F480
:1001300021C18230A9F4923009F01DC19A01AD01AC
:1001400088E0EA010990AE01E90109929E0181501F
:10015000C1F7E201898111969C918923818308C1AD
:10016000923009F407C112962D903C901397EB0141
:100170008A819B811496AD90BD90CD90DC901797AD
:10018000EC80FD800E811F819101281B390BB90184
:1001900037FF04C066277727621B730B6032710537
:1001A0000CF061C0121613066CF537014801062EDB
:1001B00004C096948794779467940A94D2F721E0C8
:1001C00030E040E050E004C0220F331F441F551FB1
:1001D0006A95D2F721503040404050402E213F21B7
:1001E00040235123211531054105510521F021E01E
:1001F00030E040E050E079018A01E628F72808293C
:1002000019293CC0232BD1F1260E371E350146019A
:10021000062E04C096948794779467940A94D2F734
:1002200021E030E040E050E004C0220F331F441FC3
:10023000551F6A95D2F721503040404050402A2146
:100240003B214C215D21211531054105510521F04E
:1002500021E030E040E050E059016A01A628B728CB
:10026000C828D9280BC0821593052CF01C01AA249C
:10027000BB24650103C0EE24FF24870111969C91E5
:10028000D20111968C91981709F445C0992339F041
:10029000A80197012A193B094C095D0906C0A6016E
:1002A00095012E193F09400B510B57FD08C01182D3
:1002B0003382228224833583468357831DC081E0A5
:1002C00081833382228288279927DC01821B930B4A
:1002D000A40BB50B84839583A683B7830DC0220F2F
:1002E000331F441F551F24833583468357838281E0
:1002F000938101979383828324813581468157813D
:10030000DA01C9010197A109B1098F5F9F4FAF4F72
:10031000BF4328F30BC0918333822282EA0CFB1C7B
:100320000C1D1D1DE482F5820683178383E0808304
:10033000248135814681578157FF1AC0C901AA27F8
:1003400097FDA095BA2F81709070A070B0705695EF
:10035000479537952795822B932BA42BB52B848318
:100360009583A683B7838281938101969383828349
:10037000DF0101C0D201CD01CDB7DEB7E2E10C94BF
:10038000D518A0E2B0E0E7ECF1E00C94C518698361
:100390007A838B839C832D833E834F835887E9E048
:1003A000EE2EF12CEC0EFD1ECE010196B7010E943F
:1003B000D2048E010F5E1F4FCE010596B8010E9438
:1003C000D2048A8991E089278A8BC701B801AE01DE
:1003D000475E5F4F0E9475000E94FD03A096E6E015
:1003E0000C94E118A0E2B0E0E8EFF1E00C94C5183D
:1003F00069837A838B839C832D833E834F835887C5
:10040000F9E0EF2EF12CEC0EFD1ECE010196B701A6
:100410000E94D2048E010F5E1F4FCE010596B801D7
:100420000E94D204C701B801AE01475E5F4F0E942F
:1004300075000E94FD03A096E6E00C94E118A0E28E
:10044000B0E0E5E2F2E00C94B91869837A838B831B
:100450009C832D833E834F835887CE010196BE0136
:10046000675F7F4F0E94D204CE010596BE016F5E8A
:100470007F4F0E94D2049985923088F0898982301A
:10048000C8F0943019F4823051F404C0843029F457
:10049000923081F48DE591E0C6C0923049F420E0BD
:1004A0009A858A89981321E02A87CE010996BBC0D4
:1004B000823049F420E09A858A89981321E02A8BBA
:1004C000CE014196B0C02D843E844F8458886D88FB
:1004D0007E888F88988CEE24FF248701AA24BB2471
:1004E000650140E050E060E070E0E0E0F0E0C10174
:1004F00081709070892BE9F0E60CF71C081D191D1E
:100500009A01AB012A0D3B1D4C1D5D1D80E090E062
:10051000A0E0B0E0E614F7040805190520F481E036
:1005200090E0A0E0B0E0BA01A901480F591F6A1F8E
:100530007B1FAA0CBB1CCC1CDD1C97FE08C081E0F5
:1005400090E0A0E0B0E0A82AB92ACA2ADB2A3196B6
:10055000E032F10549F0660C771C881C991C569412
:10056000479437942794C3CFFA85EA892B893C892D
:100570008B859C85280F391F2E5F3F4F17C0CA01FE
:1005800081709070892B61F016950795F794E79428
:1005900080E090E0A0E0B0E8E82AF92A0A2B1B2BC3
:1005A00076956795579547952F5F3F4F77FDE7CF36
:1005B0000CC0440F551F661F771F17FD4160EE0CDE
:1005C000FF1C001F111F21503040403090E05907A0
:1005D00090E0690790E4790760F32B8F3C8FDB0193
:1005E000CA018F779070A070B07080349105A1051A
:1005F000B10561F447FD0AC0E114F10401051105DC
:1006000029F0405C5F4F6F4F7F4F40781A8EFE1786
:1006100011F081E08A8F4D8F5E8F6F8F78A383E01A
:10062000898FCE0149960E94FD03A096E2E10C94C9
:10063000D518A8E1B0E0EFE1F3E00C94C5186983A8
:100640007A838B839C832D833E834F83588789E0F5
:10065000E82EF12CEC0EFD1ECE010196B7010E9492
:10066000D2048E010F5E1F4FCE010596B8010E9485
:10067000D2048985823040F08989823028F0C70110
:10068000B8010E944A0501C08FEF6896E6E00C941D
:10069000E118A8E1B0E0EFE4F3E00C94C518698339
:1006A0007A838B839C832D833E834F83588789E095
:1006B000E82EF12CEC0EFD1ECE010196B7010E9432
:1006C000D2048E010F5E1F4FCE010596B8010E9425
:1006D000D2048985823040F08989823028F0C701B0
:1006E000B8010E944A0501C08FEF6896E6E00C94BD
:1006F000E118A8E1B0E0EFE7F3E00C94C5186983D6
:100700007A838B839C832D833E834F83588789E034
:10071000E82EF12CEC0EFD1ECE010196B7010E94D1
:10072000D2048E010F5E1F4FCE010596B8010E94C4
:10073000D2048985823040F08989823028F0C7014F
:10074000B8010E944A0501C081E06896E6E00C9479
:10075000E118ACE0B0E0EFEAF3E00C94C91869836B
:100760007A838B839C83CE010196BE016B5F7F4FA2
:100770000E94D2048D81823061F1823050F1843048
:1007800021F48E81882351F12EC02F81388537FDC9
:1007900020C06E812F3131051CF06623F9F023C093
:1007A0008EE190E0821B930B29853A854B855C8511
:1007B00004C056954795379527958A95D2F76623B5
:1007C000B1F050954095309521953F4F4F4F5F4F79
:1007D0000EC020E030E040E050E009C02FEF3FEFD6
:1007E0004FEF5FE704C020E030E040E050E8B9019F
:1007F000CA012C96E2E00C94E518DF92EF92FF928A
:100800000F931F93FC01E480F58006811781D1804E
:100810008081823048F480E090E0A0E1B0E0E82AF6
:10082000F92A0A2B1B2BA5C0843009F49FC0823003
:1008300021F4EE24FF24870105C0E114F104010531
:10084000110519F4E0E0F0E096C0628173819FEF3A
:10085000623879070CF05BC022E83FEF261B370BAC
:100860002A3131052CF020E030E040E050E02AC091
:10087000B801A701022E04C0769567955795479554
:100880000A94D2F781E090E0A0E0B0E004C0880FC5
:10089000991FAA1FBB1F2A95D2F70197A109B10979
:1008A0008E219F21A023B1230097A105B10521F03E
:1008B00081E090E0A0E0B0E09A01AB01282B392B59
:1008C0004A2B5B2BDA01C9018F779070A070B07052
:1008D00080349105A105B10539F427FF09C0205CDA
:1008E0003F4F4F4F5F4F04C0215C3F4F4F4F5F4F13
:1008F000E0E0F0E02030A0E03A07A0E04A07A0E402
:100900005A0710F0E1E0F0E079018A0127C0603871
:10091000710564F5FB01E158FF4FD801C7018F77DE
:100920009070A070B07080349105A105B10539F4C4
:10093000E7FE0DC080E490E0A0E0B0E004C08FE3EB
:1009400090E0A0E0B0E0E80EF91E0A1F1B1F17FFA1
:1009500005C016950795F794E794319687E01695AC
:100960000795F794E7948A95D1F705C0EE24FF2404
:100970008701EFEFF0E06E2F679566276795902F60
:100980009F77D794DD24D7948E2F8695492F462BB9
:10099000582F5D29B701CA011F910F91FF90EF9069
:1009A000DF900895FC01DB01408151812281622F9B
:1009B0006F7770E0221F2227221F9381892F880FD3
:1009C000822B282F30E0991F9927991F11969C930D
:1009D000119721153105A9F54115510561057105DD
:1009E00011F482E037C082E89FEF13969C938E93B8
:1009F00012979A01AB0167E0220F331F441F551F66
:100A00006A95D1F783E08C930DC0220F331F441FEA
:100A1000551F12968D919C911397019713969C9355
:100A20008E931297203080E0380780E0480780E4FA
:100A3000580758F314962D933D934D935C93179755
:100A400008952F3F310579F4411551056105710570
:100A500019F484E08C93089564FF03C081E08C93C3
:100A600012C01C9210C02F57304013963C932E9307
:100A7000129783E08C9387E0440F551F661F771F02
:100A80008A95D1F7706414964D935D936D937C9322
:100A9000179708951F93DC01FB019C91923008F495
:100AA00047C08081823008F443C0943051F41196DD
:100AB0001C91843099F58181682F70E0611B710968
:100AC0003FC0843021F0923031F48230B9F181811D
:100AD000882389F12DC011961C9111978230F1F075
:100AE00081811817D9F412962D913C911397828128
:100AF00093818217930794F028173907BCF0149656
:100B00008D919D910D90BC91A02D248135814681C0
:100B10005781281739074A075B0718F4112341F05A
:100B20000AC082179307A407B50740F4112319F0F0
:100B300061E070E005C06FEF7FEF02C060E070E041
:100B4000CB011F910895DF93CF93CDB7DEB7A29766
:100B50000FB6F894DEBF0FBECDBF98A38F8F69A3E9
:100B60004AA31E8E1EC10E94770F8D8F8D8D8A30F5
:100B700008F087C08E8D282F30E08F8D98A1FC0162
:100B8000E20FF31F8D8D80839AA18E8D980F81E0E7
:100B9000692F0E94A5158AE20E948D1380E090E0E3
:100BA000A0EAB1E4898F9A8FAB8FBC8F698D7A8D63
:100BB0008B8D9C8D20E030E04AEF54E40E941F02B0
:100BC000DC01CB018D8B9E8BAF8BB88F6D897E89BD
:100BD0008F89988D20E030E040E85FE30E94790340
:100BE00088232CF481E090E09C8B8B8B3FC06D8937
:100BF0007E898F89988D20E03FEF4FE757E40E9470
:100C0000190318164CF5698D7A8D8B8D9C8D20E01B
:100C100030E040E251E40E941F02DC01CB01BC0144
:100C2000CD010E944900DC01CB019C8B8B8B0FC056
:100C300088EC90E09A8B898B89899A890197F1F7E2
:100C40009A8B898B8B899C8901979C8B8B8B8B8949
:100C50009C89009769F7A2C06D897E898F89988DDC
:100C60000E944900DC01CB019C8B8B8B8B899C897A
:100C7000988B8F878F8598890197F1F7988B8F874D
:100C80008DC08D8D8D3009F086C08E8D81508E8FF8
:100C90009AA18E8D980F81E0692F0E94A51580E2A0
:100CA0000E948D138E8D81508E8F80E090E0A0EA9F
:100CB000B1E48B879C87AD87BE876B857C858D85EE
:100CC0009E8520E030E04AEF54E40E941F02DC01E0
:100CD000CB018F839887A987BA876F8178858985AB
:100CE0009A8520E030E040E85FE30E9479038823A2
:100CF0002CF481E090E09E838D833FC06F817885E6
:100D000089859A8520E03FEF4FE757E40E94190359
:100D100018164CF56B857C858D859E8520E030E02E
:100D200040E251E40E941F02DC01CB01BC01CD0175
:100D30000E944900DC01CB019E838D830FC088ECAB
:100D400090E09C838B838B819C810197F1F79C833E
:100D50008B838D819E8101979E838D838D819E8162
:100D6000009769F71BC06F81788589859A850E94F5
:100D70004900DC01CB019E838D838D819E819A8306
:100D8000898389819A810197F1F79A83898306C0C3
:100D90000E94770F8D8F8D8D8B30D0F78E8D8F5F6A
:100DA0008E8F9E8D89A1981708F4DDCE0E94770F53
:100DB0008D33E1F7A2960FB6F894DEBF0FBECDBF1C
:100DC000CF91DF910895DF93CF93CDB7DEB78091B8
:100DD00078018F5F8093780180917801843029F4C5
:100DE00081E08093790110927801CF91DF9108958D
:100DF000DF93CF93CDB7DEB781E080937A01CF91B7
:100E0000DF910895DF93CF93CDB7DEB72B970FB661
:100E1000F894DEBF0FBECDBFCE01019698878F83B9
:100E2000E5E6F1E0FA87E987F6E0FB87E985FA85F0
:100E3000008089859A8501969A878987EF81F88550
:100E400000828F819885019698878F839B8591502A
:100E50009B87EB85EE2351F7CE0101960E949316F6
:100E600083EE96E00E940417809179018130E1F7CA
:100E7000109279012B960FB6F894DEBF0FBECDBF4E
:100E8000CF91DF910895DF93CF93CDB7DEB72B9746
:100E90000FB6F894DEBF0FBECDBFCE010196988786
:100EA0008F83EBE6F1E0FA87E987F6E0FB87E985D7
:100EB000FA85008089859A8501969A878987EF81CE
:100EC000F88500828F819885019698878F839B850E
:100ED00091509B87EB85EE2351F7CE0101960E943E
:100EE000931688EF96E00E94041780917A01813072
:100EF000E1F710927A012B960FB6F894DEBF0FBE81
:100F0000CDBFCF91DF910895DF93CF9300D00F92A3
:100F1000CDB7DEB79A8389836B838CEF0E94B817B5
:100F20000E94CF178B3FE1F789819A816B810E94E4
:100F300007180F900F900F90CF91DF910895DF93D6
:100F4000CF930F92CDB7DEB789838CEF0E94B8178D
:100F50000E94CF178B3FE1F789810E94B8170F904D
:100F6000CF91DF910895DF93CF93CDB7DEB70E9485
:100F7000CF178B3FE1F78CEF0E94B8170E94CF1775
:100F8000CF91DF910895DF93CF93CDB7DEB70E9465
:100F9000231680E690E00E947C150E9443070E9481
:100FA000231681E790E00E947C150E944307CF91B1
:100FB000DF910895DF93CF93CDB7DEB70E9423165C
:100FC00080E890E00E947C1587EF0E949F070E94B6
:100FD000020710927C010E94D70ACF91DF910895F9
:100FE000DF93CF93CDB7DEB764970FB6F894DEBF2B
:100FF0000FBECDBF0E9423168AE890E00E947C15A8
:10100000CE01409665E040E00E94A305CE014096E7
:1010100065E00E9484070E94B3078F878F858E3F0B
:1010200029F410927C010E94C30794C08F858D3FE4
:1010300009F090C00E9423168AE990E00E947C1576
:1010400029EA30E081E060E0A9010E94E71580E034
:1010500090E0A8E4B3E48B879C87AD87BE876B855F
:101060007C858D859E8520E030E04AEF54E40E9427
:101070001F02DC01CB018F839887A987BA876F8114
:10108000788589859A8520E030E040E85FE30E941A
:10109000790388232CF481E090E09E838D833FC008
:1010A0006F81788589859A8520E03FEF4FE757E487
:1010B0000E94190318164CF56B857C858D859E85DD
:1010C00020E030E040E251E40E941F02DC01CB014D
:1010D000BC01CD010E944900DC01CB019E838D83C0
:1010E0000FC088EC90E09C838B838B819C8101975F
:1010F000F1F79C838B838D819E8101979E838D83E5
:101100008D819E81009769F714C06F8178858985EC
:101110009A850E944900DC01CB019E838D838D81DD
:101120009E819A83898389819A810197F1F79A83B5
:10113000898380917C018F5F80937C0180917C0109
:10114000833019F40E94DA0705C086EF0E949F07DA
:101150000E94F00764960FB6F894DEBF0FBECDBFB5
:10116000CF91DF910895DF93CF93CDB7DEB7A797E7
:101170000FB6F894DEBF0FBECDBF85E0FE017E96B0
:10118000DF01982F1D929A95E9F785E0FE01B3964D
:10119000DF01982F1D929A95E9F70E9423168AE89D
:1011A00090E00E947C15CE014E9665E040E00E94E2
:1011B000A3050E9423168FEA90E00E947C1520EC84
:1011C00030E081E060E0A9010E94E715CE0183963E
:1011D00065E04BE00E94A305CE014E9665E00E94BB
:1011E0008407CE01839665E00E9484070E94B307BE
:1011F0008D8F8D8D8D3F09F082C00E9423168CEC5F
:1012000090E00E947C1529EA30E081E060E0A901CD
:101210000E94E71580E090E0A8E4B3E4898F9A8FFC
:10122000AB8FBC8F698D7A8D8B8D9C8D20E030E0EB
:101230004AEF54E40E941F02DC01CB018D8B9E8B90
:10124000AF8BB88F6D897E898F89988D20E030E0D3
:1012500040E85FE30E94790388232CF481E090E06A
:101260009C8B8B8B3FC06D897E898F89988D20E008
:101270003FEF4FE757E40E94190318164CF5698DAC
:101280007A8D8B8D9C8D20E030E040E251E40E940D
:101290001F02DC01CB01BC01CD010E944900DC0131
:1012A000CB019C8B8B8B0FC088EC90E09A8B898B49
:1012B00089899A890197F1F79A8B898B8B899C8907
:1012C00001979C8B8B8B8B899C89009769F714C045
:1012D0006D897E898F89988D0E944900DC01CB0140
:1012E0009C8B8B8B8B899C89988B8F878F8598891A
:1012F0000197F1F7988B8F870E94B30885C08D8D79
:101300008E3F09F081C00E9423168DED90E00E946F
:101310007C152EEE30E081E060E0A9010E94E71527
:1013200080E090E0A8E4B3E48B879C87AD87BE871C
:101330006B857C858D859E8520E030E04AEF54E406
:101340000E941F02DC01CB018F839887A987BA878F
:101350006F81788589859A8520E030E040E85FE3F9
:101360000E94790388232CF481E090E09E838D8392
:101370003FC06F81788589859A8520E03FEF4FE7F0
:1013800057E40E94190318164CF56B857C858D85F2
:101390009E8520E030E040E251E40E941F02DC0123
:1013A000CB01BC01CD010E944900DC01CB019E8331
:1013B0008D830FC088EC90E09C838B838B819C8114
:1013C0000197F1F79C838B838D819E8101979E838A
:1013D0008D838D819E81009769F714C06F81788518
:1013E00089859A850E944900DC01CB019E838D830B
:1013F0008D819E819A83898389819A810197F1F7F2
:101400009A8389830E94D70AA7960FB6F894DEBF05
:101410000FBECDBFCF91DF910895DF93CF93CDB7AE
:10142000DEB764970FB6F894DEBF0FBECDBF0E9443
:1014300023168BEF90E00E947C1529E031E081E0DB
:1014400060E0A9010E94E715CE01409665E04AE000
:101450000E94A305CE01409665E00E9484070E9489
:10146000B3078F878F858E3F29F410927C010E94ED
:10147000B30894C08F858D3F09F090C00E94231659
:101480008AE990E00E947C1529EA30E081E060E082
:10149000A9010E94E71580E090E0A8E4B3E48B87FF
:1014A0009C87AD87BE876B857C858D859E8520E07A
:1014B00030E04AEF54E40E941F02DC01CB018F832D
:1014C0009887A987BA876F81788589859A8520E072
:1014D00030E040E85FE30E94790388232CF481E048
:1014E00090E09E838D833FC06F81788589859A8542
:1014F00020E03FEF4FE757E40E94190318164CF520
:101500006B857C858D859E8520E030E040E251E44E
:101510000E941F02DC01CB01BC01CD010E944900E9
:10152000DC01CB019E838D830FC088EC90E09C830F
:101530008B838B819C810197F1F79C838B838D81B9
:101540009E8101979E838D838D819E81009769F78F
:1015500014C06F81788589859A850E944900DC01D5
:10156000CB019E838D838D819E819A83898389811E
:101570009A810197F1F79A83898380917C018F5F2B
:1015800080937C0180917C01833019F40E94DA07FA
:1015900005C086EF0E949F070E940D0A64960FB651
:1015A000F894DEBF0FBECDBFCF91DF910895DF93DA
:1015B000CF930F92CDB7DEB70E94231683E191E05F
:1015C0000E947C1521E231E081E060E0A9010E94E7
:1015D000E7150E94770F898302C00E94770F8981E7
:1015E0008B3219F089818D32C1F789818B3231F4C8
:1015F00085EF0E949F070E94F00708C089818D3205
:1016000029F484EF0E949F070E940D0A0F90CF914A
:10161000DF910895DF93CF93CDB7DEB7A8970FB6CC
:10162000F894DEBF0FBECDBFAFE5B0E0EFE5F0E070
:10163000808180688C93CE014D969DA38CA3E1E7B9
:10164000F1E0FFA3EEA3F7E0F8A7EEA1FFA1008071
:101650008EA19FA101969FA38EA3ECA1FDA1008264
:101660008CA19DA101969DA38CA398A5915098A7AC
:10167000E8A5EE2351F7CE014D960E9416170E9461
:10168000021181E391E00E947C152DE331E081E0BD
:1016900060E0A9010E94E71580E090E0A8E4B3E4CF
:1016A000898F9A8FAB8FBC8F698D7A8D8B8D9C8D36
:1016B00020E030E04AEF54E40E941F02DC01CB013D
:1016C0008D8B9E8BAF8BB88F6D897E898F89988D1E
:1016D00020E030E040E85FE30E94790388232CF4A7
:1016E00081E090E09C8B8B8B3FC06D897E898F89D8
:1016F000988D20E03FEF4FE757E40E94190318163A
:101700004CF5698D7A8D8B8D9C8D20E030E040E228
:1017100051E40E941F02DC01CB01BC01CD010E94FB
:101720004900DC01CB019C8B8B8B0FC088EC90E0D7
:101730009A8B898B89899A890197F1F79A8B898B82
:101740008B899C8901979C8B8B8B8B899C890097BB
:1017500069F714C06D897E898F89988D0E94490030
:10176000DC01CB019C8B8B8B8B899C89988B8F8721
:101770008F8598890197F1F7988B8F870E942316A0
:101780008DE491E00E947C1580E090E0A8ECB2E44A
:101790008B879C87AD87BE876B857C858D859E8575
:1017A00020E030E04AEF54E40E941F02DC01CB014C
:1017B0008F839887A987BA876F81788589859A856D
:1017C00020E030E040E85FE30E94790388232CF4B6
:1017D00081E090E09E838D833FC06F81788589850D
:1017E0009A8520E03FEF4FE757E40E94190318164F
:1017F0004CF56B857C858D859E8520E030E040E250
:1018000051E40E941F02DC01CB01BC01CD010E940A
:101810004900DC01CB019E838D830FC088EC90E0F2
:101820009C838B838B819C810197F1F79C838B83B5
:101830008D819E8101979E838D838D819E810097EE
:1018400069F714C06F81788589859A850E9449005F
:10185000DC01CB019E838D838D819E819A83898358
:1018600089819A810197F1F79A8389830E94B3084D
:10187000FFCFDF93CF9300D000D00F92CDB7DEB76C
:1018800089836A834B838A81883008F0D5C0898137
:10189000843008F0D1C08981282F30E03D832C832B
:1018A0008C819D818130910509F443C02C813D815B
:1018B000223031052CF48C819D81009771F0BCC0E1
:1018C0002C813D812230310509F45FC08C819D81DE
:1018D0008330910509F485C0AFC08B818130A1F4BC
:1018E000AAE3B0E0EAE3F0E08081482F8A81282F64
:1018F00030E081E090E0022E02C0880F991F0A9428
:10190000E2F7842B8C9398C0AAE3B0E0EAE3F0E01E
:101910008081482F8A81282F30E081E090E0022EDC
:1019200002C0880F991F0A94E2F7809584238C9354
:1019300083C08B818130A1F4A7E3B0E0E7E3F0E05E
:101940008081482F8A81282F30E081E090E0022EAC
:1019500002C0880F991F0A94E2F7842B8C936CC005
:10196000A7E3B0E0E7E3F0E08081482F8A81282FE9
:1019700030E081E090E0022E02C0880F991F0A94A7
:10198000E2F7809584238C9357C08B818130A1F43A
:10199000A4E3B0E0E4E3F0E08081482F8A81282FBF
:1019A00030E081E090E0022E02C0880F991F0A9477
:1019B000E2F7842B8C9340C0A4E3B0E0E4E3F0E0D2
:1019C0008081482F8A81282F30E081E090E0022E2C
:1019D00002C0880F991F0A94E2F7809584238C93A4
:1019E0002BC08B818130A1F4A1E3B0E0E1E3F0E012
:1019F0008081482F8A81282F30E081E090E0022EFC
:101A000002C0880F991F0A94E2F7842B8C9314C0AC
:101A1000A1E3B0E0E1E3F0E08081482F8A81282F44
:101A200030E081E090E0022E02C0880F991F0A94F6
:101A3000E2F7809584238C930F900F900F900F9076
:101A40000F90CF91DF910895DF93CF9300D000D016
:101A50000F92CDB7DEB789836A834B838A81883042
:101A600008F0D5C08981843008F0D1C08981282F41
:101A700030E03D832C838C819D818130910509F478
:101A800043C02C813D81223031052CF48C819D8115
:101A9000009771F0BCC02C813D812230310509F4E2
:101AA0005FC08C819D818330910509F485C0AFC0F2
:101AB0008B818130A1F4ABE3B0E0EBE3F0E0808117
:101AC000482F8A81282F30E081E090E0022E02C06A
:101AD000880F991F0A94E2F7842B8C9398C0ABE38C
:101AE000B0E0EBE3F0E08081482F8A81282F30E0DE
:101AF00081E090E0022E02C0880F991F0A94E2F75D
:101B0000809584238C9383C08B818130A1F4A8E3DA
:101B1000B0E0E8E3F0E08081482F8A81282F30E0B0
:101B200081E090E0022E02C0880F991F0A94E2F72C
:101B3000842B8C936CC0A8E3B0E0E8E3F0E08081F4
:101B4000482F8A81282F30E081E090E0022E02C0E9
:101B5000880F991F0A94E2F7809584238C9357C0CD
:101B60008B818130A1F4A5E3B0E0E5E3F0E0808172
:101B7000482F8A81282F30E081E090E0022E02C0B9
:101B8000880F991F0A94E2F7842B8C9340C0A5E339
:101B9000B0E0E5E3F0E08081482F8A81282F30E033
:101BA00081E090E0022E02C0880F991F0A94E2F7AC
:101BB000809584238C932BC08B818130A1F4A2E388
:101BC000B0E0E2E3F0E08081482F8A81282F30E006
:101BD00081E090E0022E02C0880F991F0A94E2F77C
:101BE000842B8C9314C0A2E3B0E0E2E3F0E08081A8
:101BF000482F8A81282F30E081E090E0022E02C039
:101C0000880F991F0A94E2F7809584238C930F9094
:101C10000F900F900F900F90CF91DF910895DF9369
:101C2000CF9300D000D00F92CDB7DEB78A836B83FD
:101C300019828B81883008F084C08A81843008F052
:101C400080C08A81282F30E03D832C834C815D81C8
:101C50004130510579F18C819D818230910534F4B8
:101C60002C813D812115310569F06BC04C815D816E
:101C700042305105B9F18C819D818330910509F481
:101C800049C05FC0E9E3F0E08081282F30E08B811C
:101C9000882F90E0A90102C0559547958A95E2F7F3
:101CA000CA0181709070882319F081E0898349C04E
:101CB000198247C0E6E3F0E08081282F30E08B8175
:101CC000882F90E0A90102C0559547958A95E2F7C3
:101CD000CA0181709070882319F081E0898331C036
:101CE00019822FC0E3E3F0E08081282F30E08B8160
:101CF000882F90E0A90102C0559547958A95E2F793
:101D0000CA0181709070882319F081E0898319C01D
:101D1000198217C0E0E3F0E08081282F30E08B814A
:101D2000882F90E0A90102C0559547958A95E2F762
:101D3000CA0181709070882319F081E0898301C005
:101D4000198289810F900F900F900F900F90CF9173
:101D5000DF910895DF93CF9300D000D0CDB7DEB7E9
:101D600089836A838981843090F58981282F30E0C6
:101D70003C832B838B819C8181309105D1F02B8119
:101D80003C81223031052CF48B819C81009761F0DD
:101D90001EC02B813C812230310581F08B819C81DA
:101DA0008330910581F013C0EAE3F0E08A818083FB
:101DB0000EC0E7E3F0E08A81808309C0E4E3F0E04D
:101DC0008A81808304C0E1E3F0E08A8180830F9000
:101DD0000F900F900F90CF91DF910895DF93CF93E5
:101DE00000D000D0CDB7DEB789836A838981843083
:101DF00090F58981282F30E03C832B838B819C8157
:101E000081309105D1F02B813C81223031052CF4B9
:101E10008B819C81009761F01EC02B813C81223018
:101E2000310581F08B819C818330910581F013C055
:101E3000EBE3F0E08A8180830EC0E8E3F0E08A8182
:101E4000808309C0E5E3F0E08A81808304C0E2E397
:101E5000F0E08A8180830F900F900F900F90CF91C8
:101E6000DF910895DF93CF9300D000D0CDB7DEB7D8
:101E70008A8319828A81843090F58A81282F30E004
:101E80003C832B838B819C8181309105D1F02B8108
:101E90003C81223031052CF48B819C81009761F0CC
:101EA0001EC02B813C812230310581F08B819C81C9
:101EB0008330910581F013C0E9E3F0E080818983EC
:101EC0000EC0E6E3F0E08081898309C0E3E3F0E03F
:101ED0008081898304C0E0E3F0E080818983898187
:101EE0000F900F900F900F90CF91DF910895DF9397
:101EF000CF93CDB7DEB760970FB6F894DEBF0FBEB5
:101F0000CDBF80E060E040E00E94390C80E061E0FD
:101F100040E00E94390C80E062E040E00E94390C11
:101F200080E063E040E00E94390C80E064E040E043
:101F30000E94390C80E065E040E00E94390C80E0AE
:101F400066E040E00E94390C80E067E040E00E94DB
:101F5000390C1F86ABC080E06F8541E00E94390CD0
:101F600080E06F8540E00E94240D188A22C0888995
:101F7000982F9C5F80E0692F0E940F0E8823B1F498
:101F80008F85882F90E0880F991F880F991F982FB1
:101F90008889890F8F5F0E945B1060960FB6F89456
:101FA000DEBF0FBECDBFCF91DF91089588898F5FCF
:101FB000888B88898430D8F280E06F8540E00E9469
:101FC000390C80E090E0A0EAB0E48B879C87AD8775
:101FD000BE876B857C858D859E8520E030E04AEF4D
:101FE00054E40E941F02DC01CB018F839887A987EC
:101FF000BA876F81788589859A8520E030E040E84E
:102000005FE30E94790388232CF481E090E09E83B3
:102010008D833FC06F81788589859A8520E03FEF69
:102020004FE757E40E94190318164CF56B857C8521
:102030008D859E8520E030E040E251E40E941F0241
:10204000DC01CB01BC01CD010E944900DC01CB01C8
:102050009E838D830FC088EC90E09C838B838B8163
:102060009C810197F1F79C838B838D819E810197E1
:102070009E838D838D819E81009769F714C06F8147
:10208000788589859A850E944900DC01CB019E8371
:102090008D838D819E819A83898389819A8101971D
:1020A000F1F79A8389838F858F5F8F878F8584303F
:1020B00008F451CF4ECFDF93CF9300D000D0CDB7EF
:1020C000DEB78A8319828A81282F30E03C832B83F4
:1020D0008B819C818830910509F470C02B813C81F3
:1020E000293031055CF58B819C818430910509F4A0
:1020F00059C02B813C81253031059CF48B819C811A
:102100008230910509F448C02B813C812330310590
:102110000CF045C08B819C818130910509F439C058
:1021200067C02B813C812630310509F441C08B8189
:102130009C81873091050CF03EC037C02B813C81DB
:102140002C30310509F446C08B819C818D3091057E
:102150005CF42B813C812A303105B1F18B819C816B
:102160008B309105A4F52DC02B813C812E3031059B
:10217000B9F18B819C818E3091057CF12B813C8162
:102180002F30310579F18B819C818031910569F186
:102190002FC087E089832EC088E089832BC089E027
:1021A000898328C085E2898325C084E0898322C091
:1021B00085E089831FC086E089831CC08AE2898309
:1021C00019C081E0898316C082E0898313C083E04F
:1021D000898310C08DE289830DC08DE089830AC098
:1021E000198208C08DE3898305C08BE2898302C010
:1021F0008A81898389810F900F900F900F90CF91E2
:10220000DF910895DF93CF93CDB7DEB72E970FB64A
:10221000F894DEBF0FBECDBF83E063E041E00E94D3
:10222000390C83E064E041E00E94390C80E090E0EA
:10223000A0EAB1E48B879C87AD87BE876B857C85E0
:102240008D859E8520E030E04AEF54E40E941F0215
:10225000DC01CB018F839887A987BA876F81788546
:1022600089859A8520E030E040E85FE30E947903A9
:1022700088232CF481E090E09E838D833FC06F81A2
:10228000788589859A8520E03FEF4FE757E40E94E3
:10229000190318164CF56B857C858D859E8520E08D
:1022A00030E040E251E40E941F02DC01CB01BC019E
:1022B000CD010E944900DC01CB019E838D830FC0BC
:1022C00088EC90E09C838B838B819C810197F1F754
:1022D0009C838B838D819E8101979E838D838D81CD
:1022E0009E81009769F714C06F81788589859A85EA
:1022F0000E944900DC01CB019E838D838D819E81EC
:102300009A83898389819A810197F1F79A838983D6
:1023100082E06FEF0E94AA0E88E30E949E118CE07B
:102320000E949E1181E00E949E112E960FB6F89495
:10233000DEBF0FBECDBFCF91DF910895DF93CF9366
:10234000CDB7DEB7E9970FB6F894DEBF0FBECDBFAD
:1023500089AF83E063E040E00E94240D80E090E0DC
:10236000A0E8BFE38DAB9EABAFABB8AF6DA97EA9C4
:102370008FA998AD20E030E04AEF54E40E941F029C
:10238000DC01CB0189AB9AABABABBCAB69A97AA939
:102390008BA99CA920E030E040E85FE30E9479032C
:1023A00088232CF481E090E098AB8FA73FC069A907
:1023B0007AA98BA99CA920E03FEF4FE757E40E9440
:1023C000190318164CF56DA97EA98FA998AD20E0C8
:1023D00030E040E251E40E941F02DC01CB01BC016D
:1023E000CD010E944900DC01CB0198AB8FA70FC043
:1023F00088EC90E09EA78DA78DA59EA50197F1F78B
:102400009EA78DA78FA598A9019798AB8FA78FA599
:1024100098A9009769F714C069A97AA98BA99CA902
:102420000E944900DC01CB0198AB8FA78FA598A92A
:102430009CA78BA78BA59CA50197F1F79CA78BA7C1
:1024400083E064E041E00E94240D80E090E0A0E899
:10245000BFE38FA398A7A9A7BAA76FA178A589A55D
:102460009AA520E030E04AEF54E40E941F02DC010C
:10247000CB018BA39CA3ADA3BEA36BA17CA18DA11B
:102480009EA120E030E040E85FE30E9479038823CA
:102490002CF481E090E09AA389A33FC06BA17CA1BA
:1024A0008DA19EA120E03FEF4FE757E40E94190362
:1024B00018164CF56FA178A589A59AA520E030E003
:1024C00040E251E40E941F02DC01CB01BC01CD01BE
:1024D0000E944900DC01CB019AA389A30FC088ECBC
:1024E00090E098A38F8F8F8D98A10197F1F798A313
:1024F0008F8F89A19AA101979AA389A389A19AA1F3
:10250000009769F714C06BA17CA18DA19EA10E94C8
:102510004900DC01CB019AA389A389A19AA19E8FCE
:102520008D8F8D8D9E8D0197F1F79E8F8D8F82E01F
:1025300069AD0E94EE0E80E090E0A0E8BFE3898FD5
:102540009A8FAB8FBC8F698D7A8D8B8D9C8D20E09F
:1025500030E04AEF54E40E941F02DC01CB018D8B76
:102560009E8BAF8BB88F6D897E898F89988D20E087
:1025700030E040E85FE30E94790388232CF481E097
:1025800090E09C8B8B8B3FC06D897E898F89988D65
:1025900020E03FEF4FE757E40E94190318164CF56F
:1025A000698D7A8D8B8D9C8D20E030E040E251E486
:1025B0000E941F02DC01CB01BC01CD010E94490039
:1025C000DC01CB019C8B8B8B0FC088EC90E09A8B4D
:1025D000898B89899A890197F1F79A8B898B8B89E5
:1025E0009C8901979C8B8B8B8B899C89009769F7C1
:1025F00014C06D897E898F89988D0E944900DC0105
:10260000CB019C8B8B8B8B899C89988B8F878F853B
:1026100098890197F1F7988B8F8783E064E040E019
:102620000E94240D80E090E0A0E8BFE38B879C87A8
:10263000AD87BE876B857C858D859E8520E030E0EB
:102640004AEF54E40E941F02DC01CB018F8398877C
:10265000A987BA876F81788589859A8520E030E0DF
:1026600040E85FE30E94790388232CF481E090E046
:102670009E838D833FC06F81788589859A8520E010
:102680003FEF4FE757E40E94190318164CF56B858E
:102690007C858D859E8520E030E040E251E40E94FB
:1026A0001F02DC01CB01BC01CD010E944900DC010D
:1026B000CB019E838D830FC088EC90E09C838B833D
:1026C0008B819C810197F1F79C838B838D819E8107
:1026D00001979E838D838D819E81009769F714C039
:1026E0006F81788589859A850E944900DC01CB013C
:1026F0009E838D838D819E819A83898389819A812E
:102700000197F1F79A838983E9960FB6F894DEBFB3
:102710000FBECDBFCF91DF910895DF93CF93CDB79B
:10272000DEB7E9970FB6F894DEBF0FBECDBF89AF15
:1027300083E063E041E00E94240D80E090E0A0E8A7
:10274000BFE38DAB9EABAFABB8AF6DA97EA98FA930
:1027500098AD20E030E04AEF54E40E941F02DC0113
:10276000CB0189AB9AABABABBCAB69A97AA98BA9FE
:102770009CA920E030E040E85FE30E9479038823D1
:102780002CF481E090E098AB8FA73FC069A97AA9AB
:102790008BA99CA920E03FEF4FE757E40E94190363
:1027A00018164CF56DA97EA98FA998AD20E030E0F0
:1027B00040E251E40E941F02DC01CB01BC01CD01CB
:1027C0000E944900DC01CB0198AB8FA70FC088ECB9
:1027D00090E09EA78DA78DA59EA50197F1F79EA7D6
:1027E0008DA78FA598A9019798AB8FA78FA598A9BA
:1027F000009769F714C069A97AA98BA99CA90E94BE
:102800004900DC01CB0198AB8FA78FA598A99CA7A5
:102810008BA78BA59CA50197F1F79CA78BA783E0BD
:1028200064E041E00E94240D80E090E0A0E8BFE376
:102830008FA398A7A9A7BAA76FA178A589A59AA5DC
:1028400020E030E04AEF54E40E941F02DC01CB019B
:102850008BA39CA3ADA3BEA36BA17CA18DA19EA1C4
:1028600020E030E040E85FE30E94790388232CF405
:1028700081E090E09AA389A33FC06BA17CA18DA1C8
:102880009EA120E03FEF4FE757E40E94190318167E
:102890004CF56FA178A589A59AA520E030E040E22B
:1028A00051E40E941F02DC01CB01BC01CD010E945A
:1028B0004900DC01CB019AA389A30FC088EC90E00A
:1028C00098A38F8F8F8D98A10197F1F798A38F8F81
:1028D00089A19AA101979AA389A389A19AA1009796
:1028E00069F714C06BA17CA18DA19EA10E94490033
:1028F000DC01CB019AA389A389A19AA19E8F8D8F18
:102900008D8D9E8D0197F1F79E8F8D8F82E069AD41
:102910000E94EE0E80E090E0A0E8BFE3898F9A8FDE
:10292000AB8FBC8F698D7A8D8B8D9C8D20E030E0D4
:102930004AEF54E40E941F02DC01CB018D8B9E8B79
:10294000AF8BB88F6D897E898F89988D20E030E0BC
:1029500040E85FE30E94790388232CF481E090E053
:102960009C8B8B8B3FC06D897E898F89988D20E0F1
:102970003FEF4FE757E40E94190318164CF5698D95
:102980007A8D8B8D9C8D20E030E040E251E40E94F6
:102990001F02DC01CB01BC01CD010E944900DC011A
:1029A000CB019C8B8B8B0FC088EC90E09A8B898B32
:1029B00089899A890197F1F79A8B898B8B899C89F0
:1029C00001979C8B8B8B8B899C89009769F714C02E
:1029D0006D897E898F89988D0E944900DC01CB0129
:1029E0009C8B8B8B8B899C89988B8F878F85988903
:1029F0000197F1F7988B8F8783E064E040E00E94B5
:102A0000240D80E090E0A0E8BFE38B879C87AD8732
:102A1000BE876B857C858D859E8520E030E04AEF02
:102A200054E40E941F02DC01CB018F839887A987A1
:102A3000BA876F81788589859A8520E030E040E803
:102A40005FE30E94790388232CF481E090E09E8369
:102A50008D833FC06F81788589859A8520E03FEF1F
:102A60004FE757E40E94190318164CF56B857C85D7
:102A70008D859E8520E030E040E251E40E941F02F7
:102A8000DC01CB01BC01CD010E944900DC01CB017E
:102A90009E838D830FC088EC90E09C838B838B8119
:102AA0009C810197F1F79C838B838D819E81019797
:102AB0009E838D838D819E81009769F714C06F81FD
:102AC000788589859A850E944900DC01CB019E8327
:102AD0008D838D819E819A83898389819A810197D3
:102AE000F1F79A838983E9960FB6F894DEBF0FBE9B
:102AF000CDBFCF91DF910895DF93CF9300D00F9298
:102B0000CDB7DEB79B838A8319820EC08981282FB7
:102B100030E08A819B81FC01E20FF31F80810E94DB
:102B20008D1389818F5F89838981282F30E08A8185
:102B30009B81FC01E20FF31F8081882339F70F90FE
:102B40000F900F90CF91DF910895DF93CF9300D036
:102B500000D00F92CDB7DEB78A836B838A81282F8E
:102B600030E03D832C838C819D8181309105C1F0C3
:102B70002C813D81223031052CF48C819D81009780
:102B800061F019C02C813D812230310569F08C81C2
:102B90009D818330910561F00EC08B8189830BC0CC
:102BA0008B81805C898307C08B81805F898303C0B0
:102BB0008B81805B8983898180680E949E110F9040
:102BC0000F900F900F900F90CF91DF910895DF93AA
:102BD000CF9300D000D0CDB7DEB789836A835C8302
:102BE0004B8389816A810E94A5158B819C810E94FB
:102BF0007C150F900F900F900F90CF91DF9108955B
:102C0000DF93CF93CDB7DEB762970FB6F894DEBFF0
:102C10000FBECDBF9A8B898B89899A899E012F5FC0
:102C20003F4FB9014AE050E00E94F018CE010196F2
:102C30000E947C1562960FB6F894DEBF0FBECDBF22
:102C4000CF91DF910895DF93CF93CDB7DEB781E0C9
:102C50000E949E11CF91DF9108951F920F920FB69F
:102C60000F9211242F933F934F935F936F937F9312
:102C70008F939F93AF93BF93EF93FF93DF93CF9384
:102C8000CDB7DEB780917D0190917E01009729F04C
:102C9000E0917D01F0917E010995CF91DF91FF9147
:102CA000EF91BF91AF919F918F917F916F915F91C4
:102CB0004F913F912F910F900FBE0F901F9018953D
:102CC0001F920F920FB60F9211242F933F934F93A1
:102CD0005F936F937F938F939F93AF93BF93EF9384
:102CE000FF93DF93CF93CDB7DEB780917D019091B5
:102CF0007E01009729F0E0917D01F0917E01099518
:102D0000CF91DF91FF91EF91BF91AF919F918F9103
:102D10007F916F915F914F913F912F910F900FBED7
:102D20000F901F901895DF93CF9300D00F92CDB7DF
:102D3000DEB79A838983EFE4F0E088E08083EEE4F5
:102D4000F0E08081AEE4B0E0E981FA818481282F4F
:102D500030E0E981FA818581882F90E0880F991F02
:102D6000880F991F880F991F822B932B8C93ACE4AB
:102D7000B0E0E981FA818081918111969C938E93D4
:102D8000E981FA818581813089F4AAE4B0E0E981A2
:102D9000FA818281938111969C938E93A9E5B0E08C
:102DA000E9E5F0E0808180618C930CC0E981FA81D3
:102DB0008581882339F4A9E5B0E0E9E5F0E0808178
:102DC00084608C930F900F900F90CF91DF910895B6
:102DD000DF93CF93CDB7DEB7EFE4F0E01082EEE4FF
:102DE000F0E01082ECE4F0E011821082E6E4F0E022
:102DF00011821082E9E5F0E0108210927E011092BB
:102E00007D01CF91DF910895DF93CF9300D0CDB7AF
:102E1000DEB79A83898389819A8190937E0180931A
:102E20007D010F900F90CF91DF910895DF93CF93A5
:102E300000D000D0CDB7DEB79C838B831A82198275
:102E4000EBE2F0E082E08083AAE2B0E0EAE2F0E0C8
:102E5000808188618C93AAE2B0E0EAE2F0E08081B0
:102E6000982F9B7FEB81FC8180818470892B8C93D0
:102E7000A0E4B0E0E0E4F0E0808180688C93A0E41E
:102E8000B0E0E0E4F0E08081282F297FEB81FC8135
:102E90008081882F90E083709070880F991F822B1B
:102EA0008C93A0E4B0E0E0E4F0E08081282F2F7C58
:102EB000EB81FC818181882F90E082959295907FB3
:102EC0009827807F9827822B8C93A0E4B0E0E0E4E1
:102ED000F0E08081282F277FEB81FC818281882F81
:102EE00090E0880F991F880F991F880F991F822BD8
:102EF0008C93EB81FC818081873039F4AAE2B0E0C9
:102F0000EAE2F0E0808183608C93EB81FC81838135
:102F10009481A581B681880F991FAA1FBB1F880FB6
:102F2000991FAA1FBB1F880F991FAA1FBB1F9C01B7
:102F3000AD0180E092E1AAE7B0E0BC01CD010E94C2
:102F40009718DA01C90101979A838983E0E4F0E0D8
:102F500089819A81892F99278083E9E2F0E089812C
:102F600080830F900F900F900F90CF91DF91089575
:102F7000DF93CF930F92CDB7DEB78983EBE2F0E01A
:102F80008081882F90E0807290700097B9F3ECE216
:102F9000F0E0898180830F90CF91DF910895DF93D6
:102FA000CF93CDB7DEB7EBE2F0E080818823DCF78A
:102FB000ECE2F0E08081CF91DF910895DF93CF9331
:102FC00000D00F92CDB7DEB79B838A8319820EC0E3
:102FD0008981282F30E08A819B81FC01E20FF31F59
:102FE00080810E94B81789818F5F89838981282F0A
:102FF00030E08A819B81FC01E20FF31F80818823EE
:1030000039F70F900F900F90CF91DF910895DF93D4
:10301000CF9300D000D0CDB7DEB79B838A836C837B
:1030200019820EC08981282F30E08A819B81FC01A2
:10303000E20FF31F80810E94B81789818F5F898317
:1030400099818C81981770F30F900F900F900F90CB
:10305000CF91DF9108950F931F93DF93CF9300D00B
:103060000F92CDB7DEB79B838A8319828981282F7F
:1030700030E08A819B818C01020F131F0E94CF17C1
:10308000F80180830FC089818F5F89838981282F10
:1030900030E08A819B818C01020F131F0E94CF17A1
:1030A000F80180838981282F30E08A819B81FC018F
:1030B000E20FF31F8081833231F78981282F30E0BE
:1030C0008A819B81FC01E20FF31F10820F900F9009
:1030D0000F90CF91DF911F910F9108950F931F9340
:1030E000DF93CF9300D000D0CDB7DEB79B838A8328
:1030F0006C8319820FC08981282F30E08A819B81DF
:103100008C01020F131F0E94CF17F8018083898161
:103110008F5F898399818C81981768F30F900F9046
:103120000F900F90CF91DF911F910F910895A1E221
:103130001A2EAA1BBB1BFD010DC0AA1FBB1FEE1F31
:10314000FF1FA217B307E407F50720F0A21BB30B7C
:10315000E40BF50B661F771F881F991F1A9469F7F8
:1031600060957095809590959B01AC01BD01CF0154
:1031700008952F923F924F925F926F927F928F921B
:103180009F92AF92BF92CF92DF92EF92FF920F93F6
:103190001F93CF93DF93CDB7DEB7CA1BDB0B0FB600
:1031A000F894DEBF0FBECDBF09942A8839884888BD
:1031B0005F846E847D848C849B84AA84B984C88453
:1031C000DF80EE80FD800C811B81AA81B981CE0F4A
:1031D000D11D0FB6F894DEBF0FBECDBFED0108952F
:1031E000FB019F01E8944230C4F04532B4F44A3008
:1031F00029F497FB1EF4909581959F4F642F7727B4
:103200000E942119805D8A330CF0895D8193CB0186
:103210000097A1F716F45DE251931082C9010C9456
:103220001119DC01FC01672F71917723E1F73297C7
:1032300004C07C916D9370836291AE17BF07C8F391
:103240000895AA1BBB1B51E107C0AA1FBB1FA617ED
:10325000B70710F0A61BB70B881F991F5A95A9F73F
:0E32600080959095BC01CD010895F894FFCFA4
:10326E00446F6F7220697320556E6C6F636B65646B
:10327E0000446F6F72206973206C6F636B6564001E
:10328E004552524F522021212100706C7A20656EDA
:10329E0074657220706173733A0057726F6E672097
:1032AE0070617373776F7264005265747279007017
:1032BE006C7A2072652D656E746572207468650077
:1032CE0073616D6520706173733A20005061737382
:1032DE00776F7264732064696666657200506173FD
:1032EE0073776F72642063726561746564007375C1
:1032FE00636365737366756C6C7900706C7A2065A8
:10330E006E746572206F6C640070617373776F7288
:10331E00643A002B203A204F70656E20446F6F7216
:10332E00002D203A204368616E67652050617373EB
:10333E0000446F6F72204C6F636B65720053656350
:10334E0075726974792053797374656D0043726573
:10335E006174652070617373776F72640000000092
:10336E0000000000000000672B05010000672B0520
:08337E0001030200802500009C
:00000001FF
